{
  "_format": "hh-sol-artifact-1",
  "contractName": "GasStation1Shot",
  "sourceName": "contracts/GasStation1Shot.sol",
  "abi": [
    {
      "inputs": [
        {
          "internalType": "address",
          "name": "_lifiDiamond",
          "type": "address"
        }
      ],
      "stateMutability": "nonpayable",
      "type": "constructor"
    },
    {
      "inputs": [
        {
          "internalType": "address",
          "name": "from",
          "type": "address"
        },
        {
          "internalType": "address",
          "name": "receiver",
          "type": "address"
        }
      ],
      "name": "AuthorizingAddressNotReceiver",
      "type": "error"
    },
    {
      "inputs": [
        {
          "internalType": "bytes",
          "name": "",
          "type": "bytes"
        }
      ],
      "name": "CallToDiamondFailed",
      "type": "error"
    },
    {
      "inputs": [
        {
          "internalType": "bytes4",
          "name": "selector",
          "type": "bytes4"
        }
      ],
      "name": "InvalidDiamondFunctionSignature",
      "type": "error"
    },
    {
      "inputs": [],
      "name": "LIFI_DIAMOND",
      "outputs": [
        {
          "internalType": "address",
          "name": "",
          "type": "address"
        }
      ],
      "stateMutability": "view",
      "type": "function"
    },
    {
      "inputs": [
        {
          "internalType": "address",
          "name": "tokenAddress",
          "type": "address"
        },
        {
          "internalType": "address",
          "name": "from",
          "type": "address"
        },
        {
          "internalType": "uint256",
          "name": "value",
          "type": "uint256"
        },
        {
          "internalType": "uint256",
          "name": "validAfter",
          "type": "uint256"
        },
        {
          "internalType": "uint256",
          "name": "validBefore",
          "type": "uint256"
        },
        {
          "internalType": "bytes32",
          "name": "nonce",
          "type": "bytes32"
        },
        {
          "internalType": "bytes",
          "name": "signature",
          "type": "bytes"
        },
        {
          "internalType": "bytes",
          "name": "diamondCalldata",
          "type": "bytes"
        }
      ],
      "name": "callDiamondWithEIP3009SignatureForGas",
      "outputs": [
        {
          "internalType": "bytes",
          "name": "",
          "type": "bytes"
        }
      ],
      "stateMutability": "nonpayable",
      "type": "function"
    }
  ],
  "bytecode": "0x60e0604052632c57e88460e01b7bffffffffffffffffffffffffffffffffffffffffffffffffffffffff191660a0907bffffffffffffffffffffffffffffffffffffffffffffffffffffffff191681525063733214a360e01b7bffffffffffffffffffffffffffffffffffffffffffffffffffffffff191660c0907bffffffffffffffffffffffffffffffffffffffffffffffffffffffff19168152503480156100a857600080fd5b50604051610cf5380380610cf583398181016040528101906100ca9190610167565b8073ffffffffffffffffffffffffffffffffffffffff1660808173ffffffffffffffffffffffffffffffffffffffff168152505050610194565b600080fd5b600073ffffffffffffffffffffffffffffffffffffffff82169050919050565b600061013482610109565b9050919050565b61014481610129565b811461014f57600080fd5b50565b6000815190506101618161013b565b92915050565b60006020828403121561017d5761017c610104565b5b600061018b84828501610152565b91505092915050565b60805160a05160c051610b1f6101d660003960006101200152600060b7015260008181608b015281816102e90152818161038a01526104920152610b1f6000f3fe608060405234801561001057600080fd5b50600436106100365760003560e01c8063020a1f7d1461003b57806327ee7f7914610059575b600080fd5b610043610089565b60405161005091906105aa565b60405180910390f35b610073600480360381019061006e91906106cc565b6100ad565b6040516100809190610853565b60405180910390f35b7f000000000000000000000000000000000000000000000000000000000000000081565b60606000833590507f00000000000000000000000000000000000000000000000000000000000000007bffffffffffffffffffffffffffffffffffffffffffffffffffffffff1916817bffffffffffffffffffffffffffffffffffffffffffffffffffffffff19161415801561018157507f00000000000000000000000000000000000000000000000000000000000000007bffffffffffffffffffffffffffffffffffffffffffffffffffffffff1916817bffffffffffffffffffffffffffffffffffffffffffffffffffffffff191614155b156101c357806040517f23d8537b0000000000000000000000000000000000000000000000000000000081526004016101ba91906108b0565b60405180910390fd5b6000606485013590508b73ffffffffffffffffffffffffffffffffffffffff168173ffffffffffffffffffffffffffffffffffffffff161461023e578b816040517f4984272f0000000000000000000000000000000000000000000000000000000081526004016102359291906108cb565b60405180910390fd5b8c73ffffffffffffffffffffffffffffffffffffffff1663cf0929958d308e8e8e8e8e8e6040518963ffffffff1660e01b815260040161028598979695949392919061094e565b6020604051808303816000875af11580156102a4573d6000803e3d6000fd5b505050506040513d601f19601f820116820180604052508101906102c891906109fe565b508a8d73ffffffffffffffffffffffffffffffffffffffff1663dd62ed3e307f00000000000000000000000000000000000000000000000000000000000000006040518363ffffffff1660e01b81526004016103259291906108cb565b602060405180830381865afa158015610342573d6000803e3d6000fd5b505050506040513d601f19601f820116820180604052508101906103669190610a40565b101561042c578c73ffffffffffffffffffffffffffffffffffffffff1663095ea7b37f00000000000000000000000000000000000000000000000000000000000000007fffffffffffffffffffffffffffffffffffffffffffffffffffffffffffffffff6040518363ffffffff1660e01b81526004016103e7929190610a6d565b6020604051808303816000875af1158015610406573d6000803e3d6000fd5b505050506040513d601f19601f8201168201806040525081019061042a91906109fe565b505b61047985858080601f016020809104026020016040519081016040528093929190818152602001838380828437600081840152601f19601f8201169050808301925050505050505061048b565b925050509a9950505050505050505050565b60606000807f000000000000000000000000000000000000000000000000000000000000000073ffffffffffffffffffffffffffffffffffffffff1634856040516104d69190610ad2565b60006040518083038185875af1925050503d8060008114610513576040519150601f19603f3d011682016040523d82523d6000602084013e610518565b606091505b50915091508161055f57806040517f0e971f120000000000000000000000000000000000000000000000000000000081526004016105569190610853565b60405180910390fd5b8092505050919050565b600073ffffffffffffffffffffffffffffffffffffffff82169050919050565b600061059482610569565b9050919050565b6105a481610589565b82525050565b60006020820190506105bf600083018461059b565b92915050565b600080fd5b600080fd5b6105d881610589565b81146105e357600080fd5b50565b6000813590506105f5816105cf565b92915050565b6000819050919050565b61060e816105fb565b811461061957600080fd5b50565b60008135905061062b81610605565b92915050565b6000819050919050565b61064481610631565b811461064f57600080fd5b50565b6000813590506106618161063b565b92915050565b600080fd5b600080fd5b600080fd5b60008083601f84011261068c5761068b610667565b5b8235905067ffffffffffffffff8111156106a9576106a861066c565b5b6020830191508360018202830111156106c5576106c4610671565b5b9250929050565b6000806000806000806000806000806101008b8d0312156106f0576106ef6105c5565b5b60006106fe8d828e016105e6565b9a5050602061070f8d828e016105e6565b99505060406107208d828e0161061c565b98505060606107318d828e0161061c565b97505060806107428d828e0161061c565b96505060a06107538d828e01610652565b95505060c08b013567ffffffffffffffff811115610774576107736105ca565b5b6107808d828e01610676565b945094505060e08b013567ffffffffffffffff8111156107a3576107a26105ca565b5b6107af8d828e01610676565b92509250509295989b9194979a5092959850565b600081519050919050565b600082825260208201905092915050565b60005b838110156107fd5780820151818401526020810190506107e2565b60008484015250505050565b6000601f19601f8301169050919050565b6000610825826107c3565b61082f81856107ce565b935061083f8185602086016107df565b61084881610809565b840191505092915050565b6000602082019050818103600083015261086d818461081a565b905092915050565b60007fffffffff0000000000000000000000000000000000000000000000000000000082169050919050565b6108aa81610875565b82525050565b60006020820190506108c560008301846108a1565b92915050565b60006040820190506108e0600083018561059b565b6108ed602083018461059b565b9392505050565b6108fd816105fb565b82525050565b61090c81610631565b82525050565b82818337600083830152505050565b600061092d83856107ce565b935061093a838584610912565b61094383610809565b840190509392505050565b600060e082019050610963600083018b61059b565b610970602083018a61059b565b61097d60408301896108f4565b61098a60608301886108f4565b61099760808301876108f4565b6109a460a0830186610903565b81810360c08301526109b7818486610921565b90509998505050505050505050565b60008115159050919050565b6109db816109c6565b81146109e657600080fd5b50565b6000815190506109f8816109d2565b92915050565b600060208284031215610a1457610a136105c5565b5b6000610a22848285016109e9565b91505092915050565b600081519050610a3a81610605565b92915050565b600060208284031215610a5657610a556105c5565b5b6000610a6484828501610a2b565b91505092915050565b6000604082019050610a82600083018561059b565b610a8f60208301846108f4565b9392505050565b600081905092915050565b6000610aac826107c3565b610ab68185610a96565b9350610ac68185602086016107df565b80840191505092915050565b6000610ade8284610aa1565b91508190509291505056fea2646970667358221220bcb241773f02bd130605bf7c1933ad5b18a0c675901287d26c8798ff7eadee8864736f6c634300081c0033",
  "linkReferences": {},
  "deployedLinkReferences": {}
}