{
  "_format": "hh-sol-artifact-1",
  "contractName": "GasStation1Shot",
  "sourceName": "contracts/GasStation1Shot.sol",
  "abi": [
    {
      "inputs": [
        {
          "internalType": "address",
          "name": "_lifiDiamond",
          "type": "address"
        }
      ],
      "stateMutability": "nonpayable",
      "type": "constructor"
    },
    {
      "inputs": [
        {
          "internalType": "address",
          "name": "from",
          "type": "address"
        },
        {
          "internalType": "address",
          "name": "receiver",
          "type": "address"
        }
      ],
      "name": "AuthorizingAddressNotReceiver",
      "type": "error"
    },
    {
      "inputs": [
        {
          "internalType": "bytes",
          "name": "",
          "type": "bytes"
        }
      ],
      "name": "CallToDiamondFailed",
      "type": "error"
    },
    {
      "inputs": [
        {
          "internalType": "bytes4",
          "name": "selector",
          "type": "bytes4"
        }
      ],
      "name": "InvalidDiamondFunctionSignature",
      "type": "error"
    },
    {
      "inputs": [],
      "name": "LIFI_DIAMOND",
      "outputs": [
        {
          "internalType": "address",
          "name": "",
          "type": "address"
        }
      ],
      "stateMutability": "view",
      "type": "function"
    },
    {
      "inputs": [
        {
          "internalType": "address",
          "name": "tokenAddress",
          "type": "address"
        },
        {
          "internalType": "address",
          "name": "from",
          "type": "address"
        },
        {
          "internalType": "uint256",
          "name": "value",
          "type": "uint256"
        },
        {
          "internalType": "uint256",
          "name": "validAfter",
          "type": "uint256"
        },
        {
          "internalType": "uint256",
          "name": "validBefore",
          "type": "uint256"
        },
        {
          "internalType": "bytes32",
          "name": "nonce",
          "type": "bytes32"
        },
        {
          "internalType": "bytes",
          "name": "signature",
          "type": "bytes"
        },
        {
          "internalType": "bytes",
          "name": "diamondCalldata",
          "type": "bytes"
        }
      ],
      "name": "callDiamondWithEIP3009SignatureForGas",
      "outputs": [
        {
          "internalType": "bytes",
          "name": "",
          "type": "bytes"
        }
      ],
      "stateMutability": "nonpayable",
      "type": "function"
    }
  ],
  "bytecode": "0x60e0604052632c57e88460e01b7bffffffffffffffffffffffffffffffffffffffffffffffffffffffff191660a0907bffffffffffffffffffffffffffffffffffffffffffffffffffffffff191681525063733214a360e01b7bffffffffffffffffffffffffffffffffffffffffffffffffffffffff191660c0907bffffffffffffffffffffffffffffffffffffffffffffffffffffffff19168152503480156100a857600080fd5b50604051610cf8380380610cf883398181016040528101906100ca9190610167565b8073ffffffffffffffffffffffffffffffffffffffff1660808173ffffffffffffffffffffffffffffffffffffffff168152505050610194565b600080fd5b600073ffffffffffffffffffffffffffffffffffffffff82169050919050565b600061013482610109565b9050919050565b61014481610129565b811461014f57600080fd5b50565b6000815190506101618161013b565b92915050565b60006020828403121561017d5761017c610104565b5b600061018b84828501610152565b91505092915050565b60805160a05160c051610b226101d660003960006101200152600060b7015260008181608b015281816102ec0152818161038d01526104950152610b226000f3fe608060405234801561001057600080fd5b50600436106100365760003560e01c8063020a1f7d1461003b57806327ee7f7914610059575b600080fd5b610043610089565b60405161005091906105ad565b60405180910390f35b610073600480360381019061006e91906106cf565b6100ad565b6040516100809190610856565b60405180910390f35b7f000000000000000000000000000000000000000000000000000000000000000081565b60606000833590507f00000000000000000000000000000000000000000000000000000000000000007bffffffffffffffffffffffffffffffffffffffffffffffffffffffff1916817bffffffffffffffffffffffffffffffffffffffffffffffffffffffff19161415801561018157507f00000000000000000000000000000000000000000000000000000000000000007bffffffffffffffffffffffffffffffffffffffffffffffffffffffff1916817bffffffffffffffffffffffffffffffffffffffffffffffffffffffff191614155b156101c357806040517f23d8537b0000000000000000000000000000000000000000000000000000000081526004016101ba91906108b3565b60405180910390fd5b6000606485013560601c90508b73ffffffffffffffffffffffffffffffffffffffff168173ffffffffffffffffffffffffffffffffffffffff1614610241578b816040517f4984272f0000000000000000000000000000000000000000000000000000000081526004016102389291906108ce565b60405180910390fd5b8c73ffffffffffffffffffffffffffffffffffffffff1663cf0929958d308e8e8e8e8e8e6040518963ffffffff1660e01b8152600401610288989796959493929190610951565b6020604051808303816000875af11580156102a7573d6000803e3d6000fd5b505050506040513d601f19601f820116820180604052508101906102cb9190610a01565b508a8d73ffffffffffffffffffffffffffffffffffffffff1663dd62ed3e307f00000000000000000000000000000000000000000000000000000000000000006040518363ffffffff1660e01b81526004016103289291906108ce565b602060405180830381865afa158015610345573d6000803e3d6000fd5b505050506040513d601f19601f820116820180604052508101906103699190610a43565b101561042f578c73ffffffffffffffffffffffffffffffffffffffff1663095ea7b37f00000000000000000000000000000000000000000000000000000000000000007fffffffffffffffffffffffffffffffffffffffffffffffffffffffffffffffff6040518363ffffffff1660e01b81526004016103ea929190610a70565b6020604051808303816000875af1158015610409573d6000803e3d6000fd5b505050506040513d601f19601f8201168201806040525081019061042d9190610a01565b505b61047c85858080601f016020809104026020016040519081016040528093929190818152602001838380828437600081840152601f19601f8201169050808301925050505050505061048e565b925050509a9950505050505050505050565b60606000807f000000000000000000000000000000000000000000000000000000000000000073ffffffffffffffffffffffffffffffffffffffff1634856040516104d99190610ad5565b60006040518083038185875af1925050503d8060008114610516576040519150601f19603f3d011682016040523d82523d6000602084013e61051b565b606091505b50915091508161056257806040517f0e971f120000000000000000000000000000000000000000000000000000000081526004016105599190610856565b60405180910390fd5b8092505050919050565b600073ffffffffffffffffffffffffffffffffffffffff82169050919050565b60006105978261056c565b9050919050565b6105a78161058c565b82525050565b60006020820190506105c2600083018461059e565b92915050565b600080fd5b600080fd5b6105db8161058c565b81146105e657600080fd5b50565b6000813590506105f8816105d2565b92915050565b6000819050919050565b610611816105fe565b811461061c57600080fd5b50565b60008135905061062e81610608565b92915050565b6000819050919050565b61064781610634565b811461065257600080fd5b50565b6000813590506106648161063e565b92915050565b600080fd5b600080fd5b600080fd5b60008083601f84011261068f5761068e61066a565b5b8235905067ffffffffffffffff8111156106ac576106ab61066f565b5b6020830191508360018202830111156106c8576106c7610674565b5b9250929050565b6000806000806000806000806000806101008b8d0312156106f3576106f26105c8565b5b60006107018d828e016105e9565b9a505060206107128d828e016105e9565b99505060406107238d828e0161061f565b98505060606107348d828e0161061f565b97505060806107458d828e0161061f565b96505060a06107568d828e01610655565b95505060c08b013567ffffffffffffffff811115610777576107766105cd565b5b6107838d828e01610679565b945094505060e08b013567ffffffffffffffff8111156107a6576107a56105cd565b5b6107b28d828e01610679565b92509250509295989b9194979a5092959850565b600081519050919050565b600082825260208201905092915050565b60005b838110156108005780820151818401526020810190506107e5565b60008484015250505050565b6000601f19601f8301169050919050565b6000610828826107c6565b61083281856107d1565b93506108428185602086016107e2565b61084b8161080c565b840191505092915050565b60006020820190508181036000830152610870818461081d565b905092915050565b60007fffffffff0000000000000000000000000000000000000000000000000000000082169050919050565b6108ad81610878565b82525050565b60006020820190506108c860008301846108a4565b92915050565b60006040820190506108e3600083018561059e565b6108f0602083018461059e565b9392505050565b610900816105fe565b82525050565b61090f81610634565b82525050565b82818337600083830152505050565b600061093083856107d1565b935061093d838584610915565b6109468361080c565b840190509392505050565b600060e082019050610966600083018b61059e565b610973602083018a61059e565b61098060408301896108f7565b61098d60608301886108f7565b61099a60808301876108f7565b6109a760a0830186610906565b81810360c08301526109ba818486610924565b90509998505050505050505050565b60008115159050919050565b6109de816109c9565b81146109e957600080fd5b50565b6000815190506109fb816109d5565b92915050565b600060208284031215610a1757610a166105c8565b5b6000610a25848285016109ec565b91505092915050565b600081519050610a3d81610608565b92915050565b600060208284031215610a5957610a586105c8565b5b6000610a6784828501610a2e565b91505092915050565b6000604082019050610a85600083018561059e565b610a9260208301846108f7565b9392505050565b600081905092915050565b6000610aaf826107c6565b610ab98185610a99565b9350610ac98185602086016107e2565b80840191505092915050565b6000610ae18284610aa4565b91508190509291505056fea26469706673582212208576ab3e4459809c0f24e296d4dd409c36a4ab13ce7f2e4334730ad71ea1caea64736f6c634300081c0033",
  "linkReferences": {},
  "deployedLinkReferences": {}
}