{
  "_format": "hh-sol-artifact-1",
  "contractName": "GasStation1Shot",
  "sourceName": "contracts/GasStation1Shot.sol",
  "abi": [
    {
      "inputs": [
        {
          "internalType": "address",
          "name": "_lifiDiamond",
          "type": "address"
        }
      ],
      "stateMutability": "nonpayable",
      "type": "constructor"
    },
    {
      "inputs": [
        {
          "internalType": "address",
          "name": "from",
          "type": "address"
        },
        {
          "internalType": "address",
          "name": "receiver",
          "type": "address"
        }
      ],
      "name": "AuthorizingAddressNotReceiver",
      "type": "error"
    },
    {
      "inputs": [
        {
          "internalType": "bytes",
          "name": "",
          "type": "bytes"
        }
      ],
      "name": "CallToDiamondFailed",
      "type": "error"
    },
    {
      "inputs": [
        {
          "internalType": "bytes4",
          "name": "selector",
          "type": "bytes4"
        }
      ],
      "name": "InvalidDiamondFunctionSignature",
      "type": "error"
    },
    {
      "inputs": [
        {
          "internalType": "address",
          "name": "tokenAddress",
          "type": "address"
        },
        {
          "internalType": "uint256",
          "name": "amount",
          "type": "uint256"
        },
        {
          "internalType": "address",
          "name": "receiver",
          "type": "address"
        },
        {
          "internalType": "address",
          "name": "caller",
          "type": "address"
        }
      ],
      "name": "UnspentUserFunds",
      "type": "error"
    },
    {
      "inputs": [],
      "name": "LIFI_DIAMOND",
      "outputs": [
        {
          "internalType": "address",
          "name": "",
          "type": "address"
        }
      ],
      "stateMutability": "view",
      "type": "function"
    },
    {
      "inputs": [
        {
          "internalType": "address",
          "name": "tokenAddress",
          "type": "address"
        },
        {
          "internalType": "address",
          "name": "from",
          "type": "address"
        },
        {
          "internalType": "uint256",
          "name": "value",
          "type": "uint256"
        },
        {
          "internalType": "uint256",
          "name": "validAfter",
          "type": "uint256"
        },
        {
          "internalType": "uint256",
          "name": "validBefore",
          "type": "uint256"
        },
        {
          "internalType": "bytes32",
          "name": "nonce",
          "type": "bytes32"
        },
        {
          "internalType": "bytes",
          "name": "signature",
          "type": "bytes"
        },
        {
          "internalType": "bytes",
          "name": "diamondCalldata",
          "type": "bytes"
        }
      ],
      "name": "callDiamondWithEIP3009SignatureToNative",
      "outputs": [
        {
          "internalType": "bytes",
          "name": "",
          "type": "bytes"
        }
      ],
      "stateMutability": "nonpayable",
      "type": "function"
    }
  ],
  "bytecode": "0x610100604052632c57e88460e01b7bffffffffffffffffffffffffffffffffffffffffffffffffffffffff191660a0907bffffffffffffffffffffffffffffffffffffffffffffffffffffffff191681525063733214a360e01b7bffffffffffffffffffffffffffffffffffffffffffffffffffffffff191660c0907bffffffffffffffffffffffffffffffffffffffffffffffffffffffff191681525063606326ff60e01b7bffffffffffffffffffffffffffffffffffffffffffffffffffffffff191660e0907bffffffffffffffffffffffffffffffffffffffffffffffffffffffff19168152503480156100f557600080fd5b506040516111e83803806111e8833981810160405281019061011791906101b4565b8073ffffffffffffffffffffffffffffffffffffffff1660808173ffffffffffffffffffffffffffffffffffffffff1681525050506101e1565b600080fd5b600073ffffffffffffffffffffffffffffffffffffffff82169050919050565b600061018182610156565b9050919050565b61019181610176565b811461019c57600080fd5b50565b6000815190506101ae81610188565b92915050565b6000602082840312156101ca576101c9610151565b5b60006101d88482850161019f565b91505092915050565b60805160a05160c05160e051610fbb61022d60003960006101920152600061011f0152600060b8015260008181608b015281816103690152818161040a01526105e30152610fbb6000f3fe608060405234801561001057600080fd5b50600436106100365760003560e01c8063020a1f7d1461003b57806364e0e4a314610059575b600080fd5b610043610089565b60405161005091906106fb565b60405180910390f35b610073600480360381019061006e9190610827565b6100ad565b60405161008091906109ae565b60405180910390f35b7f000000000000000000000000000000000000000000000000000000000000000081565b6060600080843591507f00000000000000000000000000000000000000000000000000000000000000007bffffffffffffffffffffffffffffffffffffffffffffffffffffffff1916827bffffffffffffffffffffffffffffffffffffffffffffffffffffffff1916148061017f57507f00000000000000000000000000000000000000000000000000000000000000007bffffffffffffffffffffffffffffffffffffffffffffffffffffffff1916827bffffffffffffffffffffffffffffffffffffffffffffffffffffffff1916145b15610190576064850135905061025e565b7f00000000000000000000000000000000000000000000000000000000000000007bffffffffffffffffffffffffffffffffffffffffffffffffffffffff1916827bffffffffffffffffffffffffffffffffffffffffffffffffffffffff1916036102205784846004908092610208939291906109da565b8101906102159190610cb5565b60a00151905061025d565b816040517f23d8537b0000000000000000000000000000000000000000000000000000000081526004016102549190610d39565b60405180910390fd5b5b8b73ffffffffffffffffffffffffffffffffffffffff168173ffffffffffffffffffffffffffffffffffffffff16146102d0578b816040517f4984272f0000000000000000000000000000000000000000000000000000000081526004016102c7929190610d54565b60405180910390fd5b8c73ffffffffffffffffffffffffffffffffffffffff1663cf0929958d308e8e8e8e8e8e6040518963ffffffff1660e01b8152600401610317989796959493929190610dc8565b600060405180830381600087803b15801561033157600080fd5b505af1158015610345573d6000803e3d6000fd5b505050508a8d73ffffffffffffffffffffffffffffffffffffffff1663dd62ed3e307f00000000000000000000000000000000000000000000000000000000000000006040518363ffffffff1660e01b81526004016103a5929190610d54565b602060405180830381865afa1580156103c2573d6000803e3d6000fd5b505050506040513d601f19601f820116820180604052508101906103e69190610e55565b10156104ac578c73ffffffffffffffffffffffffffffffffffffffff1663095ea7b37f00000000000000000000000000000000000000000000000000000000000000007fffffffffffffffffffffffffffffffffffffffffffffffffffffffffffffffff6040518363ffffffff1660e01b8152600401610467929190610e82565b6020604051808303816000875af1158015610486573d6000803e3d6000fd5b505050506040513d601f19601f820116820180604052508101906104aa9190610ec0565b505b60006104fb86868080601f016020809104026020016040519081016040528093929190818152602001838380828437600081840152601f19601f820116905080830192505050505050506105dc565b905060008e73ffffffffffffffffffffffffffffffffffffffff166370a08231306040518263ffffffff1660e01b815260040161053891906106fb565b602060405180830381865afa158015610555573d6000803e3d6000fd5b505050506040513d601f19601f820116820180604052508101906105799190610e55565b905060008111156105c7578e8184326040517ffc40a1440000000000000000000000000000000000000000000000000000000081526004016105be9493929190610eed565b60405180910390fd5b819450505050509a9950505050505050505050565b60606000807f000000000000000000000000000000000000000000000000000000000000000073ffffffffffffffffffffffffffffffffffffffff1634856040516106279190610f6e565b60006040518083038185875af1925050503d8060008114610664576040519150601f19603f3d011682016040523d82523d6000602084013e610669565b606091505b5091509150816106b057806040517f0e971f120000000000000000000000000000000000000000000000000000000081526004016106a791906109ae565b60405180910390fd5b8092505050919050565b600073ffffffffffffffffffffffffffffffffffffffff82169050919050565b60006106e5826106ba565b9050919050565b6106f5816106da565b82525050565b600060208201905061071060008301846106ec565b92915050565b6000604051905090565b600080fd5b600080fd5b610733816106da565b811461073e57600080fd5b50565b6000813590506107508161072a565b92915050565b6000819050919050565b61076981610756565b811461077457600080fd5b50565b60008135905061078681610760565b92915050565b6000819050919050565b61079f8161078c565b81146107aa57600080fd5b50565b6000813590506107bc81610796565b92915050565b600080fd5b600080fd5b600080fd5b60008083601f8401126107e7576107e66107c2565b5b8235905067ffffffffffffffff811115610804576108036107c7565b5b6020830191508360018202830111156108205761081f6107cc565b5b9250929050565b6000806000806000806000806000806101008b8d03121561084b5761084a610720565b5b60006108598d828e01610741565b9a5050602061086a8d828e01610741565b995050604061087b8d828e01610777565b985050606061088c8d828e01610777565b975050608061089d8d828e01610777565b96505060a06108ae8d828e016107ad565b95505060c08b013567ffffffffffffffff8111156108cf576108ce610725565b5b6108db8d828e016107d1565b945094505060e08b013567ffffffffffffffff8111156108fe576108fd610725565b5b61090a8d828e016107d1565b92509250509295989b9194979a5092959850565b600081519050919050565b600082825260208201905092915050565b60005b8381101561095857808201518184015260208101905061093d565b60008484015250505050565b6000601f19601f8301169050919050565b60006109808261091e565b61098a8185610929565b935061099a81856020860161093a565b6109a381610964565b840191505092915050565b600060208201905081810360008301526109c88184610975565b905092915050565b600080fd5b600080fd5b600080858511156109ee576109ed6109d0565b5b838611156109ff576109fe6109d5565b5b6001850283019150848603905094509492505050565b600080fd5b7f4e487b7100000000000000000000000000000000000000000000000000000000600052604160045260246000fd5b610a5282610964565b810181811067ffffffffffffffff82111715610a7157610a70610a1a565b5b80604052505050565b6000610a84610716565b9050610a908282610a49565b919050565b600080fd5b600080fd5b600067ffffffffffffffff821115610aba57610ab9610a1a565b5b610ac382610964565b9050602081019050919050565b82818337600083830152505050565b6000610af2610aed84610a9f565b610a7a565b905082815260208101848484011115610b0e57610b0d610a9a565b5b610b19848285610ad0565b509392505050565b600082601f830112610b3657610b356107c2565b5b8135610b46848260208601610adf565b91505092915050565b60008115159050919050565b610b6481610b4f565b8114610b6f57600080fd5b50565b600081359050610b8181610b5b565b92915050565b60006101408284031215610b9e57610b9d610a15565b5b610ba9610140610a7a565b90506000610bb9848285016107ad565b600083015250602082013567ffffffffffffffff811115610bdd57610bdc610a95565b5b610be984828501610b21565b602083015250604082013567ffffffffffffffff811115610c0d57610c0c610a95565b5b610c1984828501610b21565b6040830152506060610c2d84828501610741565b6060830152506080610c4184828501610741565b60808301525060a0610c5584828501610741565b60a08301525060c0610c6984828501610777565b60c08301525060e0610c7d84828501610777565b60e083015250610100610c9284828501610b72565b61010083015250610120610ca884828501610b72565b6101208301525092915050565b600060208284031215610ccb57610cca610720565b5b600082013567ffffffffffffffff811115610ce957610ce8610725565b5b610cf584828501610b87565b91505092915050565b60007fffffffff0000000000000000000000000000000000000000000000000000000082169050919050565b610d3381610cfe565b82525050565b6000602082019050610d4e6000830184610d2a565b92915050565b6000604082019050610d6960008301856106ec565b610d7660208301846106ec565b9392505050565b610d8681610756565b82525050565b610d958161078c565b82525050565b6000610da78385610929565b9350610db4838584610ad0565b610dbd83610964565b840190509392505050565b600060e082019050610ddd600083018b6106ec565b610dea602083018a6106ec565b610df76040830189610d7d565b610e046060830188610d7d565b610e116080830187610d7d565b610e1e60a0830186610d8c565b81810360c0830152610e31818486610d9b565b90509998505050505050505050565b600081519050610e4f81610760565b92915050565b600060208284031215610e6b57610e6a610720565b5b6000610e7984828501610e40565b91505092915050565b6000604082019050610e9760008301856106ec565b610ea46020830184610d7d565b9392505050565b600081519050610eba81610b5b565b92915050565b600060208284031215610ed657610ed5610720565b5b6000610ee484828501610eab565b91505092915050565b6000608082019050610f0260008301876106ec565b610f0f6020830186610d7d565b610f1c60408301856106ec565b610f2960608301846106ec565b95945050505050565b600081905092915050565b6000610f488261091e565b610f528185610f32565b9350610f6281856020860161093a565b80840191505092915050565b6000610f7a8284610f3d565b91508190509291505056fea264697066735822122087a2b9865c5e72dd3705c6825feab785a874f999c608a9ec896f9b53c602844f64736f6c634300081c0033",
  "linkReferences": {},
  "deployedLinkReferences": {}
}